:100000004D424E014D3448504201040001000000B1
:100010006000000000C000000000000000000000C0
:10002000000031010000000000000000000400009A
:1000300001004201010025000004000000940000BE
:100040000200010126002A000098000000140000B0
:10005000030001012B002F0000AC00000014000081
:100060000038002021020000000000000000000015
:100070000000000000000000000000000000000080
:100080000000000000000000000000000000000070
:10009000000000000000000000000000550000000B
:1000A00057000000450100006D00000081000000C5
:1000B00000000000FEE7034B01221A70024B0022F1
:1000C000DA7770470000002008000050034B01223F
:1000D0005A70A0230022DB051A7070470000002030
:1000E000034B01229A70A0230022DB059A7070470F
:1000F000000000208D23013B002B01D0C046FAE711
:10010000044B10221B78DBB21807C00F13401843B2
:100110007047C0462B0000500F4BF7B518261E70D5
:100120000E4BA0271E70FFF7E5FFFF050B4B01AC40
:1001300000252C3760701D703E70FFF7DBFF064B0B
:1001400020703D701D7023786278181C504040006C
:1001500013400343D8B2FEBD2A0000502D000050CA
:100160000023036030B50B601312012B13D104235D
:10017000013B10D3084DD4B25D5D641BF8D4074A2F
:100180009D001268AA58002A05D012190260044A7C
:10019000D35C1C1B0C6030BDCC030000C803000006
:1001A000D003000070B58022D2051379DBB2002B9A
:1001B00019D1294C6360A360284B1289261C251C89
:1001C0001B6892B210361435E260301C291C002BDB
:1001D00006D098472169002932D1E268301C291CD9
:1001E000FFF7BEFF2CE0012B0CD11B4B1869002838
:1001F00026D099685C69A14222DA4C1C9C60137A73
:1002000043541DE0022B16D1134C2369002B17D049
:1002100060686169884213DA1B5C1BBAD360104BBB
:100220001B68002B03D0E268101880B298476368FF
:100230000133636004E0032B02D1074B00229A6074
:10024000C0468023DB0501221A70C04602221A70C4
:1002500000221A7070BDC046000000203800002047
:100260003400002080230222DB05FF321A600421C3
:10027000024AFF31118000221A70704706000040C8
:10028000F0B5A023DB059B68534A1F218DB0DBB27C
:100290001160D12B0BD0D02B01D80133DBB2A022BF
:1002A000D2059168FF20814319439160F1E74B4BE0
:1002B0004B4A191D043B934203D200221A600B1CC7
:1002C000F6E7FFF7CFFF474A8023DB021A80464A52
:1002D0000027093A92B25A809F80C046434ADE887E
:1002E000434D10685268434C0A922A8809ABB6B253
:1002F0001A8123625E810990FFF70EFFA023DB05C0
:10030000DA7C03AB1A7034214D225A7099705A71FD
:1003100048214522D9709A71502132221971D87121
:100320006362FF3205AB0597A3611A8007AB012218
:100330000797E3615A70304B0697DA892F4B08977D
:100340005F882F4B211C1B8828310B70211C1B0A36
:1003500029310B702B4901235B420B702A482B4932
:1003600003700B702A48211C2E312F3403700B7040
:1003700023702B889E4229D1264B9A4226D0BA421E
:1003800024D1254EF7899F4220D0F689B446234ECA
:100390007788BC451AD1224FF889984216D0FF8938
:1003A000EB889F4212D1174B17481A70120A7388B4
:1003B0000270164A9BB2164813701B0A0370EB8832
:1003C0009BB20B701B0A237000F052F8154B0222EF
:1003D0001A6062B6FEE7C046280000500400002004
:1003E0003C0000200004000000C00000F0BF00003E
:1003F000F8BF00000000002000040000FC9700008F
:10040000FE0300002A0000202B0000202C0000200A
:100410002D000020FFFF000000980000FCAB000052
:1004200000AC000000E100E0180000202030407027
:1004300008080C08FFFFFFFFFFFFFFFFFFFFFFFFA4
:10044000FFFFFFFFFFFFFFFFFFFFFFFFFFFFFFFFBC
:10045000FFFFFFFFFFFFFFFFFFFFFFFFFFFF310178
:100460004D344850434F5432000000000000420118
:10047000F0B5F3B002AF03F0F6FE05F007FCF8614B
:1004800008F06EFC08F09CFC09F0F2F900F04AFF5D
:10049000CB4ACC4B1A60CC4ACC4B1A6005F0F6FB29
:1004A000F862072800D1D5E213D8032800D1B0E2C2
:1004B00004D8012800D160E226D96BE2FA6A052A45
:1004C00000D1B5E200D9BCE205F066FC02F074FD93
:1004D000A9E2FB6A0C2B00D1E1E20AD80A2B00D179
:1004E000CAE200D9D2E2082B00D1BCE2F96AF96174
:1004F000D4E7F96A0E2900D1E6E200D2D8E20F294A
:10050000F4D105F049FCF1E205F0D6FB051E18D048
:100510000128EBD1AE4B00241B683C87196A1A698D
:100520001862F9601C6138213F23CB55391CBA6031
:10053000201C3431221C7C6305F0A8FC3C62BD62A7
:10054000A3E00124012C02D0022C0BD086E0002075
:1005500002F044FA03F0B6FAC0B205F0E5FC02205E
:1005600002F076F86B463B62994B6A461B683C1C6E
:1005700059681E681B694E43F3189B000A33DB0859
:10058000DB008E21D21A490095467D1802AB281C4B
:1005900000215222C834BB6208F058FD00212A22F3
:1005A000201C08F053FD8B4AB96A1368B6008E19F7
:1005B00019605D615E609C61874B69461B682D33E5
:1005C0001A785200131C0833DB08DB00C91A8D4669
:1005D00002AD0021281C08F039FDB86A311C01F079
:1005E00013F8FA69002A01D005F0D6FB7B4B0022F4
:1005F0001B681A6005F092FC041C03F063FAA04229
:1006000004D0201C03F063FA02241CE08E235B005C
:10061000FA1800953B1C311CC833B86A01F018FF6A
:100620006E4B6F491B68041C1A688A4201D0013264
:100630001A60002807D105F03FFB002803D105F020
:1006400025FB0028D6D0634900220B681A605A6047
:100650005A619A613A6AFB6A9546FB6105F02CFB88
:10066000002800D042E705F011FB002800D169E71F
:100670003CE7022A0FD005F01FFB012800D035E728
:1006800005F004FB002800D030E7BA6A012AF0D157
:10069000022001F0DDFF4E4B69461C6879606368FB
:1006A000226821695A4353189B000A33DB08BA6158
:1006B000DB006A46D21A8E219546490002AB7818B3
:1006C000A42200217B6208F0C1FC381C00215222C8
:1006D000C83008F0BBFC381C00212A229C3008F0EE
:1006E000B5FC6269A369381C53439B000A33DB08DD
:1006F000DB006A46D21A954602ABAAB002AE0021D0
:10070000AAB020227C303B6102AD08F09FFC3C1C6B
:100710000021A022301C08F099FC64340021A022A2
:10072000281C08F093FC00211522201C08F08EFCE8
:100730009423DC51274B8C211B68CE51796A90227F
:10074000D5511960B9698A00796A8A18BA615A6004
:100750008E225200D2191A61C8219C22C919D219BD
:1007600059619A611D4B1A68D36D126E00923869F7
:10077000796ABA6906F0D6F8FB69002B01D005F05A
:100780000BFB00244021CC53A223CA19391C13703F
:10079000201C3C31221CFC6305F078FB0F4B261C0F
:1007A0001B681C6005F0BAFB041C03F08BF9F861B0
:1007B000A04217D0201C03F08AF90223BB62C9E0D3
:1007C000ED5E000038000020695F0000340000206A
:1007D0006805002040000020041200203C0000209A
:1007E000FFFFFF7F002E66D1CE4B6A461B683A6042
:1007F0009A6951005A6901324A43131C0833DB08D5
:10080000DB006946C91A8D4602AC311C201C08F079
:100810001DFC042003F01CFBC34D201C2B683A690F
:10082000D96D06F005F97861012827D1BF4B1B6807
:100830005B7C002B13D003F0C3F9301C05F044FAA5
:100840002B6848225E60D1190E23D6530B70391CD9
:10085000301C4431321C7E6405F018FB28E0052072
:1008600003F0F6FA391C4C31A323301C321C8E8065
:10087000FE640B7105F00AFB7E6919E0AC4D386926
:100880002B68211C5A7806F0B3F92968087803F020
:100890001EF903F033F92B68587802F02DFF301C55
:1008A00002F062FFF86903F012F903F04BF9BE623F
:1008B0003A6895463AE09E4B1B6898789A4B1B68BD
:1008C000586702F019FF052003F09AFA3B1C9C338D
:1008D00000938E235B00FA183B1C786AB969C83311
:1008E00001F020F9B862002820D1381C7C30396A28
:1008F00007F036FF3862032804D0072800D0FAE05A
:10090000182505E0381C7C3008F08EF9051E09D04A
:1009100005F0E0F96B1E01229A401040D84000D14A
:10092000E9E00BE103F060FA03F04AF97E4B8149FC
:100930001B681A688A4201D001321A60B96A00291C
:1009400008D105F0B9F9012804D105F09FF9002874
:1009500000D127E7734BFA681B68B9681A621961FE
:10096000754B00221B681A605A601A615A619A61BD
:100970007A68FB6A9546FB617DE605F00DFA05F0A5
:1009800085F90128FBD008F0C7F900F0CBFC04F092
:100990006DFFABE501F07CF805F0B2F8002003F044
:1009A00047FB03F0ABFA00F0E5F8002002F016F880
:1009B00002F0F6FC43780020002B00D1022001F069
:1009C00047FE05F0E9F905F001FA032812D006D830
:1009D00001280CD0022815D101F0D4F912E0052825
:1009E0000ED00AD306280DD102F058FE0AE001F01D
:1009F000BDF807E001F06CFA04E004F07DFD01E0D1
:100A000002F03AFE05F042F90228DCD001F052F87B
:100A10006CE505F0C1F9012001F01AFE05F036F988
:100A20000328FBD062E505F031F90428FBD05DE531
:100A300005F0B2F904F03AFC05F028F90528FBD0DE
:100A400054E505F0A9F902F0C7FB05F01FF90628E7
:100A5000FBD04BE505F0A0F900F0BAFB05F016F964
:100A60000728FBD042E505F097F903F031FC05F0CB
:100A70000DF90828FBD039E505F08EF9012001F0C9
:100A8000ADFF05F003F90A28FBD02FE505F084F946
:100A900004F0C0FA05F0FAF80B28FBD026E505F0C3
:100AA0007BF900F0D9F905F0F1F80C28F9D01DE533
:100AB00005F072F9002003F0CBF903F0C7FA05F056
:100AC000E5F80D28F6D011E505F066F9002002F0F2
:100AD000CCFC002003F0BCF903F0B8FA05F0D6F81E
:100AE0000E28F6D0012002F0C0FCFFE405F0CEF89D
:100AF0000F28FBD0FAE4396A082900D012E703F086
:100B000073F9012002F0EDFD0024391C5431A223B9
:100B1000201C221C8C807C650B71261C05F0B6F90C
:100B20003C6203E7680500203C000020041200201E
:100B300008120020FFFFFF7F400000203022D01964
:100B400002213123D1550024DD5505F02DF803F0A5
:100B50004BF9012002F0C5FD201C05F0B5F8391C49
:100B60005C310E23201C221C8C80FC650B7105F06F
:100B70008DF9DBE6F8B5164D7146281C764603F074
:100B80004EFC144C276803F061F87865276803F081
:100B900061F8B865276803F061F8F865276803F025
:100BA00061F83866276803F0AFF87866276803F0C5
:100BB00077F9094A094912680968B866C978127C48
:100BC00023684A43281C311C1A6703F03FFCF8BD18
:100BD000150B00003C000020041200200812002029
:100BE000014B18607047C04604120020014B186882
:100BF0007047C04604120020014B18607047C04681
:100C000008120020014B18687047C04608120020E7
:100C1000014B18687047C0463C000020014B5868E3
:100C20007047C0463C00002038B50B4C7146201C74
:100C3000754603F0F4FB094B201C1B689A68002AD8
:100C400003DD19695218D20F00E000227933291C04
:100C50001A7003F0FBFB38BDC90B00003C000020FC
:100C6000F0B52C4F73468BB07146381C019303F0DE
:100C7000D6FB294DCD222B689200995C1A1C793243
:100C8000002904D1C6218900595C002901D0002126
:100C900011701478002C20D0DA6F03A907921A691A
:100CA000002408929B6807AA099303234B708B705A
:100CB0007C235B42CB7001261023201C8C800E709D
:100CC0000B7105F0E3F82B68DA6F022A02DC921947
:100CD000DA6718E0DC67341C15E01A6905A9079289
:100CE0009B680920089301230B7002234B708B70C3
:100CF0007C235B42CB7007AA64238C800B7105F0C8
:100D0000C5F82B68DC67381C019903F09FFB201C99
:100D10000BB0F0BD010C00003C00002038B5054CC4
:100D200075467146201C03F07AFB291C201C03F039
:100D30008DFB38BDBD0C000038B5054C75467146BD
:100D4000201C03F06CFB291C201C03F07FFB38BD2A
:100D5000D90C000038B5054C75467146201C03F0CF
:100D60005EFB291C201C03F071FB38BDF50C000054
:100D7000F7B5344D73467146041C281C019303F0EB
:100D80004EFB314B314A1B68AC46995CCD22920038
:100D9000002905D02E49595C002901D1012199541F
:100DA0009A5C002A46D0C622002592009D54294A0A
:100DB0002E1C1768291C3A6A013A0DD350002018DE
:100DC000543000880028F7D0013100B2C9B2854202
:100DD000F2DA051C161CEFE71D4A9A5C002A0ED1B8
:100DE00001290CD9012222703A6A013A09D3B24290
:100DF000FBD051006118543100200880F5E700292C
:100E000003D0CE220021920005E0CE229200995814
:100E1000032901DC01319950CE2292009A58032A0D
:100E20000BDDCD22002192009954C62201219200AF
:100E3000995402E0CE2189005A506046019903F08E
:100E400005FBF7BD110D00003C0000201903000058
:100E50004603000068050020F0B599B000AF744665
:100E6000714693487C6103F0DAFA02F08DFA914DF5
:100E70002C68E368A6685A00BE64111CC07908316A
:100E80009B00C9080A333864C9006846DB08401A69
:100E9000DB008546C01A23696E46590008319B0065
:100EA000C9080A33C900DB08DB008546F862401A2E
:100EB000BE638546C01A6E46B86285460021B86B8F
:100EC0007E6308F0C3F8226900215200786B08F0B5
:100ED000BDF8002002F0BCFF2868BE6C0468321C1C
:100EE0006243754B91001D68B3005B427B62B307A0
:100EF000F964F31A91073B62891AFA63013C22D321
:100F00004668FA6B931966437618B200FE6A9B0036
:100F1000B2187A64FA6C93420BD07A6C0426D21819
:100F20009446EA6D7642D258B44466463260043B39
:100F3000F0E77E6A9219FA64BE6CFA6B921B3E6A05
:100F4000FA638919DAE73C6C5B4B013C3A6C186830
:100F5000FC61A300013A05D3016EBE6AC958F15085
:100F6000043BF7E73B6C013B9B00BB6104F08EFE4A
:100F70000C2800D094E0002002F06AFF4D4B186866
:100F80004D4B01681D68BB6C79644B439A00FA6451
:100F90009A07D21A3A63FB630A1C013A34D34168B8
:100FA000FC6B0E1C56436318444C9B0009198919AD
:100FB000BC6B490061183C6B3619FC6AB600A61977
:100FC0007E60FC6CA34213D07E68F418043C266853
:100FD000B446EE6DF4586646361BBE6000268C5F44
:100FE000A446BC68A44500DA0C80043B0239E8E75B
:100FF0007E6AF96BA419FC64BC6C3E6B091B3C6AED
:10100000F96336193E63C8E72B4BFE691D687C6B9C
:1010100073003E6CBA69E318FE64FC6C013CFC642E
:101020000ED3BC6A2E6EA458FC60F968B4580C1B31
:1010300000215E5EA64200DA1C80023B043AECE727
:10104000037900245426F4535126F35580267A6CF4
:1010500052207642C35550210225331CCA552B43DA
:101060005321CB555422391CD0555031BA6B012035
:1010700004F00CFF5C23DC5301205824E0553C6C49
:101080005921CC555A21CC5535435B22391CD555B5
:1010900071235C2458317A6BE35504F0F7FE65E761
:1010A0000348796903F0D2F9BD4619B0F0BDC046D6
:1010B000F90D0000680500203C000020FFFFFF7FC5
:1010C00082B0F0B589B0109C151C0F930693029462
:1010D00007900E1C119C02F057F947793A4B049780
:1010E0008279964206D11B6800211A6EAB00D05A55
:1010F00003910BE01A68354BD26D1968731C89682F
:1011000003964B43EB1801339B00D05A049971436B
:1011100049194A00A4182388069E0193019F731859
:10112000874203D8C61B029FBE521CE0029EB6181F
:1011300005960027F65F013610D01F787EB2B446C0
:10114000013601DA013703E06646002E06DD013F75
:101150001F7002235B42238001202FE0069F791835
:101160000F78002F01D120800CE07FB27C1C05D1CC
:10117000019E059F301A3880002002E0012F01D126
:10118000FF2008701978039C049E079F48B274439F
:101190007D19002805DC029EB25E013208D00029CC
:1011A00006D12A5700203E2A08DC0131197005E0DB
:1011B0002A57002A01DD01391970002009B0F0BC5E
:1011C00008BC02B01847C0463C000020680500205B
:1011D000F0B5714691B075464E48099503F01FF978
:1011E00002F0D2F8069004F063FF4B4B069F1C6898
:1011F000FF79A16820688A0055420895051C4D4377
:10120000464B05921E68AA00079784460291B71ABA
:10121000802043490397009500066746013FBC467E
:1012200022D3009D6768EB199B00934211D0039F66
:10123000FD18F76DFF580497EF6F049DED1B0495A3
:10124000A84200DA281C049FB94200DD391C043B87
:10125000EBE7039D059F089BED19D2180395009BB2
:10126000029D5B1B0093D8E701230AAA29252A27A0
:1012700013700E9002230F91002069466D446F4455
:1012800088852B703B702B217C235B4269440B705B
:101290000BAA542313700AA90EAA04F0F7FD1F4DE0
:1012A0001F4F2E68079C802502972D06013CE4B253
:1012B000FF2C16D0376E06980397417A079807F0EF
:1012C000F9FD039BA700FA58C9B2B76E8900CB5944
:1012D000D31A9D4200DA1D1C029F9F42E6DD029355
:1012E000E4E70CA901230B7002234B708B707C2365
:1012F0000E955B42029D0020CB700EAA6B23888066
:101300000F950B7104F0C2FD0248099903F09EF895
:1013100011B0F0BD71110000680500203C000020F4
:10132000FFFFFF7F37B5114C7146201C754603F057
:1013300076F805F0D7FC02F019FE021E07D16946C7
:10134000A923888000900B7104F0A0FDFEE7084BF4
:101350001B6803CB02F096F805F0DCFCFFF70AFCF3
:10136000291C201C03F072F837BDC046C5120000CE
:1013700068050020F0B591B000AF7446786139611E
:101380009D487146FA60BC6003F049F802F0FCFF2A
:1013900085002B1C0A33DB08DB006E46F61AB546C7
:1013A000F8616C4668467D623C6202F0F5FFFD69BB
:1013B0006D002B1C0833DB08DB00F61AB546301C29
:1013C0003D63BE6103F004F802258C4C013D2368A7
:1013D000AE009A19FC32906A7E63632818DD5026AD
:1013E0006E43002191629C225200B0181818FF2110
:1013F0007A6A07F02BFED9362368FF3698197A6A85
:10140000002107F023FE23680122FC336A405A6260
:101410007A4B7C6B1B681B19FC339A6A01329A6207
:10142000002DD2D102267E637D6B744C013D236872
:10143000AE009A19FC32506B7D63BE6201281BDD41
:10144000796B28264E43002555639E229200B018E2
:101450001818FF213A6B07F0F9FDB22321689B00B1
:10146000F61888193A6B291C07F0F0FD23687C6B8D
:101470000122FC3362401A63604BBE6A1D68331C54
:10148000AC466344FC335A6B7C6B01325A63002CCC
:10149000CAD13E6A7C6AFD6936196B003E62BD693D
:1014A0003E6B5B42AD19BB6266447B6BBD617E6285
:1014B000B86A834234D0396A5A008A18BC69043A3F
:1014C0003D6B1068E218023A7E6A14885A194C4D36
:1014D00052007119C2267600351C6544AA180225EF
:1014E000C9187D607E68013E7E60161CA036356896
:1014F000854200D230601668864200D910600E1C0A
:1015000050363588A54200DA34800E88A64200DDC8
:101510000C807E682839503A002EE3D1023BC7E7A1
:10152000384B36481B6801685B68FE689C000919E7
:101530008C463519191C0022043A013905D364463A
:10154000A618AC5880363460F6E702685024111CA7
:10155000FC314D6AEC266C437600096BA0193934D6
:1015600028264E43FF3414193C639E25B224A40060
:10157000AD003119761951189619002410187962A6
:10158000FE62251C7E6BF9698E4214DA7E6BB10017
:101590004658AD193E6B71587E6B6D1A71007E6AAC
:1015A000765AB446FE6A715A6646711A7E6B6418A2
:1015B00001367E63E6E70021B98738260121F1551F
:1015C000DBB239203A21C355CB553B260423F355D2
:1015D0003C205B23391CC35580320220383104F093
:1015E00055FC7E69044835803D69B9682C8002F05D
:1015F0002DFFBD4611B0F0BD151300003C000020CA
:101600009E02000068050020F0B5264C85B07346A8
:1016100001900F1C201C7146039302F000FF002074
:1016200002F016FC204B1B68DA6D5E6E029202F02F
:10163000FBFA051C02F002FB311C031C2A1C029859
:1016400004F03CFD194D00212B680198DA689200E6
:1016500007F0FCFC2B6800211A69381C920007F087
:10166000F5FC04F013FDC578061C002D0CD00020FD
:1016700002F0EEFB0C4B01981B68391CDA6D1B6EF7
:1016800005F010F9013DF0E7F278391C019804F0FB
:101690003FFE281C02F0DCFB201C039902F0D6FE62
:1016A00005B0F0BDA91500003C0000206805002031
:1016B000F0B58FB002AF7346B86079608C48714660
:1016C0003B6002F0ACFE8B4B68461A688A4D13688B
:1016D00092689E1C5200564301335208311C5343FA
:1016E0000831C908C900401A8546013302AC5B00C5
:1016F000E3187B61814B79691B682868D9609C601D
:10170000FA6000213C22083007F0A0FC321C0021C6
:10171000201C07F09BFC2B68B868191CDA6D083197
:101720005B6E0090201C04F02DFF2B68061C78686F
:101730001A6E191C9B6E00900831786904F08AFEBD
:101740000643F6B23E612E68301C311C443108302D
:1017500004F046FE6A4A2B681268F0641020115E9D
:10176000586B88420EDC1220115E986B884209DBB0
:101770001420115ED86B884204DC1621525E1B6C6B
:1017800093421FDA00233B8528220123D35504F01E
:10179000AFFA002816D104F009F9002812D0564BF0
:1017A0001B681B68FF2B00DDFF232920C355381C55
:1017B0000221283004F0F8F9524802F07DFE01F0D1
:1017C0007FFEE4E74B4E0225336800211A68586813
:1017D0003A769A688023BA765B420132B9832B430A
:1017E0005200391C7876FB76A21853230120183159
:1017F0003B7704F04BFB306801232022D3550021B6
:10180000037CB98422222121CB55D35580235B420E
:101810002B432320C35524216D23CB55391C012094
:1018200020317A6904F032FB3368282218682921B4
:10183000D0555A682A20CA5599685A1DC155D27F79
:101840002B20C2551B692C212D22CB55D35D7F2225
:101850009343802040422B4303432D21CB55FB680B
:10186000002201335B00E318391C0120283100936A
:10187000131C04F0D7FAFFF7D7F9FFF7F1F90028A6
:1018800027D11D4D2B68D86D02F04AFC2B68D86C0F
:1018900002F020FB02F0F2F83A69002A0DD12B6821
:1018A000211C1A1C08325B6FB86804F093FC2B688B
:1018B00078685A6F796904F0E9FC022001F054FF5E
:1018C000786905F0F7FA28680024503006F094FB98
:1018D00000E02C1C094B00221B6805489A60DA6066
:1018E000396802F0B3FD201CBD460DB0F0BDC04606
:1018F00051160000680500203C0000204000002038
:101900000812002010270000F0B52F4D714685B059
:10191000281C744602F083FD05F0F6F92B4EE430E6
:10192000336801781A1C6D321278002902D151B245
:10193000481C04D100275F60BA421FD12BE05868D1
:101940001A6F904202DA586801305860012922D09B
:101950005B6893421FDB1E4B01271B685B7C002BDF
:101960000CD0381C04F0B0F900226946A223101CE8
:101970008A8000920B7104F089FA1FE000223B1C60
:1019800002A90E33101C8A8002920B7104F07EFAB9
:1019900033686D331F7033681A1C6D321278002A59
:1019A00003D10C4A1268D27804E0012A03D1094A13
:1019B000126812795A67586F01F09EFE281C211C8C
:1019C00002F044FD05B0F0BDA91800003C00002065
:1019D0000412002008120020F0B57446D1B00D1C8E
:1019E00005947146041C2848171C02F018FD04F0E9
:1019F0005FFB039005F088F90490201C05F046FA7F
:101A00000021E42217A807F021FB0021402207A8AB
:101A100007F01CFB1D4E17A83268516D936D4432C0
:101A2000009207AA06F00AFB336817A8596D07AAA7
:101A30009B6D009505F0ACFE211C17A82A1C3B1CD1
:101A400006F0F8F83368201C596D9A6D06F008FA14
:101A5000201C291C3A1C05F05DFA049B0A4CE43357
:101A60001B78002B0AD1039A1379002B06D004F0BF
:101A700023F9012802D0012001F033FE201C059932
:101A800002F0E4FC51B0F0BD791900003C000020E8
:101A900038B5074C7146201C754602F0C0FC07F0B3
:101AA00025F901F077FC291C201C02F0CFFC38BD81
:101AB000311A000038B50A4C7146201C754602F0F8
:101AC000AEFC07F01FF901F065FC002002F0B0FA4F
:101AD00001F0E4FD291C201C02F0B8FC38BDC04612
:101AE000551A000070B50E4CAAB07146061C201C99
:101AF000754602F094FCA42201A8002107F0A6FA82
:101B0000311C01A805F04EFA05F086FA01A805F08F
:101B10004BFB201C291C02F099FC2AB070BDC0466A
:101B2000851A0000F7B5754601950F4D0E1C071C70
:101B30007146281C00921C1C02F071FC311C381CE0
:101B4000FFF7B6FD061E03D0201CFFF7CBFF04E015
:101B50000098211C089AFFF73FFF281C019902F00A
:101B600075FC301CFEBDC046C51A0000F0B595B02E
:101B700000AF744671467F48BC6002F050FC7E4C5A
:101B80006D4622680ACA5943CA1852000832D20860
:101B9000D200AD1A5B00794AAD465B0812686E460A
:101BA000BB634B005D08F3181362D66101F0ECFBD8
:101BB0002168786388687B6B78629A7A5B7A534392
:101BC000DBB23B644B68013B09D30A68013AFAD3A4
:101BD000B86B00245043181840008453F6E73C6C5F
:101BE000013C6419640034193C626C00221C023A06
:101BF0003B6AFC619219934203D000211980023B99
:101C0000F9E77C6AA3003C6C5B4264003C613C6C7D
:101C10007B613B6C2D1901336D0075195B005B42D4
:101C2000BD613225FB60FD62002002F011F9524BCC
:101C30001B685C683B63524B7C641868231C013B47
:101C400026D33D6B7C6A2A6899005443B962591CBB
:101C500009198900013AF2D3BD6A446E6459C56D11
:101C60007C606C580025A4467C68FD63A44502DDB9
:101C700065462D1BFD63BC6B54431C196400A55BBA
:101C8000AC46FD6BAC446546A5537C690919E1E798
:101C90003B4B00241D68FB68023C9C421BD038690A
:101CA000296E03195B007A6BFB63B962517A386C59
:101CB00007F000F9FB6BB86AC9B21A58A86E890020
:101CC0000B58B969D31ADA43D21713400A5B9B1039
:101CD000D3180B53DFE7FC6A013CFC62002CA3D154
:101CE000FD693C6A023D7519AC4207D00021605E77
:101CF000322107F0E9F8023C6080F5E77C6C013C9A
:101D00007C640ED33D6B2C68013CF7D3BD6B786CC3
:101D1000654345196D00A85F322107F0D5F8A85337
:101D2000F2E7FEF7FBFF144D48202B6849241968A1
:101D30001A794A25C155E255EA555A1DD27F1B69C9
:101D40004B204C21C255CB55381C7E235B424D2283
:101D5000311C4830D35503F03FFE084B00221B686E
:101D60000448DA611A62B96802F070FBBD4615B02A
:101D7000F0BDC0460D1B000068050020400000209B
:101D80003C000020F0B54E4D8FB000AF7446714658
:101D9000281CFC6002F043FB01F0F6FA494C236872
:101DA0009E68FE61817A427A00204A43D2B2FA628A
:101DB00044CB724393195B000833DB08DB006946B0
:101DC000C91A414B52001B688D46D961B96251084E
:101DD000B96169468A181A6202F03AF83B4B2068EA
:101DE00019680268FB6976005343760876007B62C7
:101DF000531E8C4671425E43BB6A79619E193E61F7
:101E000000263E60013A1BD343687C6A3D683E6908
:101E1000E118AD198900BD60013B08D36546ED6D41
:101E2000BE686D585C007C6035530439F4E77E6A07
:101E3000FC693D68361B7E627E69AD193D60E1E755
:101E4000FD6ABE69F96A214B01316C007519BE6AE1
:101E500049006D001868494275190023023B8B4206
:101E600005D0066EE21852009259EA52F6E7FEF7E4
:101E700063FF144C3121236832241A791E683025FF
:101E8000CA55E2555A1D1B69EE553426D27FF355CB
:101E90007E235B423521381CCB553325B96A30305F
:101EA000EA5503F099FD084B00221B680448DA61EB
:101EB0001A62F96802F0CAFABD460FB0F0BDC0461A
:101EC000251D000068050020400000203C00002087
:101ED000F0B593B000AF744671466948FC6002F0FB
:101EE0009EFA01F051FA674D69462C68A6683E6279
:101EF000827A437A6668206853437043DBB2BB62E0
:101F00008319DA1D5B00D2080833D200DB08891A76
:101F1000DB008D46F862C91A5B4B6A46F86A7E633D
:101F20006E468D461B68FE636E467E6216185A62C8
:101F30009E62101C0021E26807F088F82269301CBC
:101F4000002107F083F8514B7C6B1B6862007833EB
:101F5000BC6A1B783E6A6400BB637C61B300BC6AE8
:101F6000FE6A5B423B6133197E6A5B005208F318DC
:101F7000FA61BB61BD6B002D5AD0002001F068FFF3
:101F8000404B424A1C6816686368013B2ED32268A6
:101F9000396A581C5143401880003860013AF4D324
:101FA0003968F06D7D6A4058F969386351435918B2
:101FB0004900495F091AFF2900DDFF21F86BCD4375
:101FC000C0187860786BED1750430D4079680D5458
:101FD000F969786A5143591849008C46396B65464E
:101FE00029523D6838692D183D60D7E7274BBA6AFA
:101FF0001D680023023B013A16D37C692E6EE1185E
:10200000BC6949008859E15E091AFF2900DDFF21FA
:10201000FC6AFE6B36193E63CE43F61731403C6BCB
:10202000BE69A154F052E5E7BC6B013CBC63A1E77B
:10203000FEF790FE134E4124336842251A79196841
:102040004020E255EA555A1D1B69C1554420D27FF4
:10205000C3557F235B424521381CCB554326F96B82
:102060004030F25503F0B8FC074BBC6B1B680448CA
:102070005C629C62F96802F0E9F9BD4613B0F0BDFC
:10208000711E000068050020400000203C00002078
:10209000F0B5774693B00797041C0F1CA94871460A
:1020A00002F0BDF904F004F8069004F02DFE237848
:1020B000A54E002B08D1B23003785A1E9341DBB2F3
:1020C0000493002B08D001E001200490C82331685C
:1020D00000229B00CA5007E03268C8239B00D158F9
:1020E000FE2901DC0131D1503368C72204989200E7
:1020F00000219954884253D194495C5C081C002CFF
:1021000008D0595C49B2022900D00121995400221B
:102110001A5488E1C62080001C5CC925AD00002C43
:1021200008D001249C54049F894A5F541F549F5433
:102130005F5179E15C59002C08DD013C012C01D094
:102140005C512DE0049F03215F5168E1814A82497F
:102150001268D2888A4223D0CC218900595A9142F0
:102160001ED37E4C2068827CC82080001858904284
:1021700016DB10AA11807A4904985B5A08A953808B
:10218000049B8B8001230B7002234B708B70CB70F0
:1021900015230B7103F07AFE22683368D27C5A5102
:1021A0006E4C2568287D002800D03CE10499664EDD
:1021B000002900D091E034686A4BE35C002B63D0C7
:1021C0002B1C2C331B78002B5ED0CF2310919B004F
:1021D000E3580393CC239B000398E25A4300DA535D
:1021E0002B1C2D33197804984A00BA180592031C49
:1021F00099420CD0059F5A00BF1A0222BC46524297
:10220000944467463F880133BC466044F0E706F0DB
:102210005BFE1090EA8BD0239B00904202DAE258DA
:10222000013200E00022E2502A1C2E321278E358DC
:1022300093421BDD7C230AA900255B420124CB705D
:10224000281C162310AA8D800C700B714C708C709A
:1022500003F01CFE3C4BCF221B6892009D50D02205
:1022600092009D50281C03F053FEDDE02B1C2D3303
:102270001A78039FCF23013A9B00974202DA013775
:10228000E75001E00022E250CA2201359200EB7FC4
:10229000A2589A421ADB00240CA91223201C221CEB
:1022A0008C800C940B7103F0F1FD3368CB2292000B
:1022B0002A4899580068013199500230C07F814204
:1022C00004DB9C500221C7228A4099541E4B2649A8
:1022D0001B6800225A54CA2151E03368C922920077
:1022E0009850224A9A5C002A4BD0CC27BF00D95B79
:1022F00010AA1B4D11805B5B0EA9538001230B704C
:1023000002234B708B70CB70192388800B7103F004
:10231000BDFD22683368D08BDC5B1349844227D231
:102320005C5B508D844223D2595C002929D1CA219B
:10233000890001325858D27F904222DA0130585039
:102340001FE0C046312000003C0000201B030000BD
:102350001903000008120020FFFF000004120020F3
:1023600032030000470300001A0300004603000088
:1023700001225A54CA21890000225A50CB218900D7
:102380005A502D4D2D4A2B689A5C002A4BD1069F3E
:102390003A79002A45D0C62292009C5C002C42D19A
:1023A000274E98683768798BBA8BFB8A3F8B0097EA
:1023B00003F026FE36682B68718CB28C071C986877
:1023C000F38C368D009603F01BFE2B68CC22920016
:1023D0009E5A1C4D1C49BE4202DA5A5A824213DBF5
:1023E0000AAA16805B5A10A95380022300200126F6
:1023F0004B708B70CB70172388800E700B7103F0BD
:1024000045FD0D4B1B685E550B4B1B685A5D002A42
:1024100009D0049F002F06D0C622012192009954B2
:1024200002E008495A5401240848079902F00EF8BE
:10243000201C13B0F0BDC0463C0000204603000045
:1024400004120020190300003203000031200000B4
:10245000F0B5BBB002AF75463861F960754871469A
:102460007D607A610025BB6001F0D9FFA6232020A2
:10247000391C2A1C1C313D84C355281CFD6103F006
:1024800005FDFFF741FA281C01F0BAFC6A4E6B4AC1
:102490003368CC218900581899185A6EFEF76AFFE4
:1024A0003368CC2292009A5A3C1C3C342280634A06
:1024B00024209B5A2521022263800123C355CA553B
:1024C00026202721C255CA552822391C3D850C20BB
:1024D000D3552431221C03F0D9FC594B2C201B6806
:1024E0002D221968C15558682E21D0559A682F2081
:1024F000CA55591DC97F1B69C1553021CB553120A3
:102500000423C35533680132DB6D92009A18391CDD
:102510002B1C009202202A1C2C3103F083FC38690A
:10252000F968FFF7C5F8051E03D07869FFF7DAFAF6
:1025300061E0201C291CA42206F088FD414B201CD0
:102540001B6879691C61BA68FFF746FAF822D1590D
:10255000201CFFF79DFD201CFEF70AFC201C04F048
:1025600023FE26786846B3000733DB08DB00C11A78
:102570008D4602AC3C61F8607E612C1C3C20C01989
:102580000319663300215B5E002B0DDD7A693C2365
:10259000013A90007A6161003A69DB195918101804
:1025A000A031042206F010FD023C231C1433E5D1B7
:1025B000234B391C1B6834311C6858689A680C70AE
:1025C00048708A700533DB7F0132CB707E235B421B
:1025D0004B71194B52001B6800249B6D0C719A18AB
:1025E00000923B690320321C03F01CFC154BF96878
:1025F0001B688D461C6101F0F7FB01F0E1FA0E4B00
:102600001A68C7239B00D05600F0EEFB041E00D1D1
:102610002C1C0D4B1B681A680C4B9A4202D001F01F
:1026200057FEFEE70348796801F010FF201CBD4605
:1026300039B0F0BDF12300003C000020320300005F
:1026400068050020400000202C120020CDCDCDCD0B
:10265000F0B5A5B002AF74467146B862DA48BC6006
:1026600001F0DDFE00F090FE386500F0A5FE786315
:1026700000F096FED54B3D6D1C683863E2686E46EF
:10268000131C0E33DB08DB006D79F61AB54623699F
:102690007D6502AD7D640E337D6DDB085219DB0074
:1026A000F61A131CB5460E3302AEDB08BE64DB001F
:1026B0006E46F61A53000E33DB08DB00B546F61AF9
:1026C00002ADB546F61A3D6402ADB54602AE002134
:1026D000386CBE6306F0BAFC7E6DE06801213218EA
:1026E0005200281C494206F0B1FCE168B86B721830
:1026F0005200B74906F0AAFC8022D5513D6BE26832
:102700002B78786C002B0ED0BE6A002E0BD0796B24
:1027100006F05AFCF02522697C6BAD00B86C61199B
:1027200006F052FC4CE0002106F090FC2269B86CE7
:10273000002106F08BFCBE6A002E41D1786CB96C8A
:1027400002F0F2FB00243D6D7020FC66C453AB79AF
:102750006C26F3556B796F226D206E21C355CB55D6
:10276000D35D7F260125B34380202B434042D119FE
:1027700003430B7070221D23391CD35508207A6C3B
:102780006C3103F083FB391C74317C678C803C6DA9
:102790000D70E379BA6C4B708B70CB780820B34323
:1027A00080261D4376421E2335430B71CD7003F006
:1027B0006DFB8548B96801F049FEBD4623B0F0BD08
:1027C0007C6D402563005B4200263B62FD62FE6437
:1027D000B96C786C02F0A8FB032001F039FB7B4E4A
:1027E0000021336860201C68C15358685C225D2555
:1027F000D455E8559A6804255F23DD55602451239C
:10280000E355744C5E212368CA55DB6D013292009A
:10281000391C9A1802205C3103F038FB0123642232
:10282000D355336800211B7C6820C1536526662080
:10283000F355C35568225A23D35567212368CD55D4
:10284000391C1A6E0220643103F020FB3C6D7E6D52
:10285000A5797300013D6B43BC6BE318FB63331C2C
:102860006B437E6B3C6CF618FE617E6CE418F318CB
:102870007C61FB600026681C40D0F9697A69FB68BE
:10288000386D7118B218F3184479B9613A617B62F6
:10289000013C2BD3F86B6300C25A4F4B9A42F7D0DE
:1028A000396CBA6B842380207960DA51F967C019DA
:1028B00069460CC80CC1291C7B68786C221CFEF789
:1028C000FFFB002803D0FB6C01339BB2FB64386B29
:1028D000396902780B5D002A05D0B869796A025D12
:1028E0009B180B55D4E77A6A1355D1E7FC6B386A0D
:1028F000013D2418FC637C6D361BBCE73D6DEC7913
:10290000013C661C34D03E6D7B6DB179BD6B4B4391
:10291000E3185B005A5B304B9A42F1D03B6C842643
:102920003A1CFB67F5518032684660CA60C0221CC1
:10293000B86CFEF7C5FB002803D0FB6C01339BB2DB
:10294000FB643D6B3E6D2978B2793D6C7E6D2B1931
:102950007243002908D07D6BF0262919B600891929
:102960009A5C0B78D31800E09B5CBD6C2B55C7E7D5
:10297000164BFC6C1B68DA681B69D3189C4206DA9C
:10298000FB6A013BDBB2FB62002B00D020E7BD6A93
:10299000022D00D0D2E63E6D7C6DB3797D6C591E60
:1029A00061436918013B00D2C8E63E6D7279013A75
:1029B00007D33C6BE018F9300478885C2018885401
:1029C000F5E77D6D491BEDE7F12500006805002066
:1029D000FFFF00003C000020FEFF0000F0B5A3B0A8
:1029E00000AF764671467861D248BE6001F017FDAF
:1029F000D14C2368DB68BB635B0001333B6501F0AE
:102A000051F82368FF22DB68F865D31A984200DD8D
:102A1000FB656E46F86D01F04DF87E643E6D6846CC
:102A200075002B1C0833DB08DB00C01A85466E4698
:102A30000123FE64602161226226CB55D355F355F4
:102A4000002464207C23C4535B426320C35564216B
:102A5000B123CB553A1C391C5C32201C603103F089
:102A600015FAFA6DBE6B931B9BB23E6DB44205DA4C
:102A7000FE6C62001919B1520134F6E73A6D012675
:102A8000D2B2682169230024CE55DA556C20022386
:102A90006B21C453CB556A20391CC25568317A6307
:102AA000201CFA6C03F0F2F92B1C7A6C0833954663
:102AB000DB08DB006846C01A8546C01A6A468546B0
:102AC0003A63F86201F060FC3A6D8100930078642B
:102AD0005843031C0A33DB08DB00F8616846C01A60
:102AE0008546C01A6A4678628546301CF960BA622B
:102AF00000F088FE211C2A1CF86A06F0A7FA386B41
:102B0000211C2A1C06F0A2FAFE68FC64BE610021AA
:102B1000FA69B86A06F09AFA786AFF21FA6906F04B
:102B200095FA0026844B3E601B683E689B689E4277
:102B30004FDABE6BF96DF6B2881BC0B27E6500F04D
:102B4000C6FF00F08FFF00F053FE00252C1C3E6DE9
:102B50000134E217F30FB4425341DBB23B64002B64
:102B600008D17E6DF96DA01B4018C0B200F0AFFF18
:102B700000F078FFFB686E460A33DB08DB00F01AD2
:102B800085463E616E46FE6301F006FC0023191C7B
:102B90007E6CB14210DAFE6BF258BE6A7019C658EC
:102BA000964200D2C2507E6A7019C658964200D929
:102BB000C25001310433EBE73E69B546BE69AD1939
:102BC0003E6C002E02D100F013FEC0E73E680136D5
:102BD000A8E75A4E00257D653E642C1C3E6DB4422C
:102BE00028DA0020031C7E6CB3420CDABE6A9A001D
:102BF0007619B1587E6A8C46711984448A586146A8
:102C0000881A0133EFE73E6C864206DDF96DBE6B34
:102C100063189B1B3B623864BC647E6D864200DA9D
:102C2000786500F0D9FD3E6B6300F052BE69013457
:102C3000AD19D3E7404B7E6D1B68DB889E4206DAF8
:102C40007E69012E03D0FE6D3E62BE6BBE643C4BBE
:102C500032211B680022FC3399626421D96202216F
:102C600059630121BE695A621A639963BB6C151CD2
:102C700073437E6AF6183E61BE6AF318FB637E6C8E
:102C8000B54225DA3969A80009582D4C3864081C6A
:102C90002668796000F0A0FD2B1C4E339B009851F4
:102CA000FA6B3B6C2668D05800F096FD2B1C7633EF
:102CB0009B00226898516B00D3180121A822494239
:102CC00092009952BC220021920099520135D6E718
:102CD0007E69012E36D1FA6A00233E6DB34209DACD
:102CE0003E6B5900715A1088884200D2118001331E
:102CF0000232F2E7BE6C7300FE6A9A5BFE6C131C34
:102D0000B24200D2331C9BB27E6BFB640020742164
:102D100001237022D355C85371237221DE55CE553D
:102D200002237322391CD3557031FA6A03F0AEF8CE
:102D30000DE0C0467D29000008120020FFFFFF7F44
:102D40003C000020786D00F047FD80B2F864BE6C56
:102D50008023DE533E6A8220C653BE6C86217500F6
:102D60003E6B84207519FE6C2B88CE53391C78314C
:102D7000C35304234B708B703A1C02230020CB708A
:102D80008032B223012488800C700B7103F07EF82E
:102D9000114B1A68114BD05C002808D1104B1B68EE
:102DA000DA882B889A4200D2201C03F0B1F87E69A1
:102DB000002E0AD13E6AF0B200F089FE0948B968D7
:102DC00001F044FBBD4623B0F0BD02F05FFF0A28CE
:102DD00000D19CE6EEE7C0463C000020470300001F
:102DE000081200207D290000F0B56E4C724691B0AB
:102DF0007146071C201C039201F011FB06F010F82D
:102E0000051C02F091FF684BD122196892008A5C80
:102E1000061C1C1C824220D000280CD000226B46CD
:102E20009A8269463B230B75101C04A90492032562
:102E300003F02CF80DE006A93C23321C8880069094
:102E40000B7103F023F8594B2268D55C6B1E9D4132
:102E5000EDB2D12321689B00CE5402F073FF2168AC
:102E6000D1239B00CA5C061C002A20D1504BC95CB0
:102E700081421CD0002809D008A93923101C8A805F
:102E800008920B71022503F001F80DE00AA93A231C
:102E9000321C88800A900B7102F0F8FF434B2268C5
:102EA000D55C6B1E9D41EDB2236841495E5402F032
:102EB000F5FE019002F02AFF032F03D0019A002AA9
:102EC00004D108E0019B0126002B43D0002002F032
:102ED000EDFE01263EE0D12321689B00CB5A019EE6
:102EE0000293002B36D1012F02D0022F04D00EE026
:102EF000381C03F001F80AE0029802F0FDFF226896
:102F00002C49535C002B02D0029803F001F802F028
:102F1000EDFF264E2268071C935D0022834218D0E5
:102F2000904209D00CA91123101C8A800C920B71BD
:102F3000012502F0ABFF08E00EA913233A1C88809C
:102F40000E900B7102F0A2FF3D1C23689F550026D6
:102F500000E0161C05F064FFA84208D0281C05F00C
:102F600059FF05F02DFF002001F062F8012602F064
:102F7000C9FF23680F495B5C834200D0012602F041
:102F8000FDFE041C03F0C0FE0379A34200D00471CF
:102F900002F0E6FE0348039901F058FA301C11B024
:102FA000F0BDC046892D00003C0000204603000013
:102FB0004503000047030000F0B599B000AF754627
:102FC000714680483D6001F02AFA7F4C0921236850
:102FD0007E4E1A1C6D3212784A43191C6B310978E7
:102FE0009B7952189B09D318FB6200F0CDF9236836
:102FF00000201A1C6F329B7912789B09D318BB6290
:1030000001F060FFB5446D46A2B0FD616D46A2B00F
:10301000BD610A266D467D617E637D6BF86A052180
:103020007A6BADB23D610F2602F01EFAB86A052137
:103030007A6B02F019FA3E633D6BF86A05213A6B30
:10304000ADB27D60002602F01DFAB86A05213A6B28
:1030500002F018FAFE63FD6B05200026684302F0BB
:1030600031FABE637E623E62574E0223306805210C
:103070000370F86A00F0F2FE554A0A211268554DB5
:1030800092682B685143DA6D06318B00D45AF96986
:10309000BA6B7B6A8C5224B21B197B6233680122A3
:1030A0001A70B86A052100F0D9FE2B68BE6B5B6E02
:1030B0003D6A5B690236E41A2D1980233D62BE63C6
:1030C0009B009E42D0D12B12FE6B7D690021AB5339
:1030D0007D6A002200232C12FE69705A0231001B07
:1030E000404300B2B860C017F8608020BD68FE6839
:1030F0008000521973418142EED1FE6B1B06120A09
:10310000BD6971001A4302366A50FE63082EA2D1CF
:103110003D694026F5537D6842260024F5534C2630
:10312000F4534A230226DE550121482049228023F8
:10313000C155D6555B42391C3A1C33434B25201CE4
:1031400048314032EB5502F0A1FE01225021CA5510
:103150008021542049420425C4530E435220532257
:10316000391C5123C555D655201C50317A69DD557F
:1031700002F08CFE5C23DC5359218023CD550120C5
:1031800058265A225B42391CF055D5555B261D4303
:10319000201C5831BA69F55502F078FE3D6B0335B5
:1031A0003D63422D00D047E77E6B01367E63102ED3
:1031B00000D032E70348396801F048F9BD4619B03C
:1031C000F0BDC046592F000098030020F8FBFFFF18
:1031D000680500203C000020F0B58DB000AF7446BB
:1031E00071465948BC6001F01AF900F0D9F8574D02
:1031F000061C2C6869462268A068D31DDB08DB002A
:10320000C91A7861C81AB9618D4685466B46002196
:10321000B8693B6105F01AFF22681E24FF34341997
:103220000021684605F012FFB9692422FC60201CC9
:10323000002405F0C9FE201C347000F0F9FE0120C6
:10324000FFF706FA201C00F003FE2A684049536885
:103250000968BC61013B0AD37C6910686043181897
:10326000CC6D013080000059BC692418F1E720249E
:10327000013C46D3211C2422F86805F0E7FE00201B
:1032800000F0D6FE0120FFF7E3F9002000F0E0FD9A
:1032900001232021CB5521222221D355CB557C233C
:1032A0005B422322D35500207D232421B8843A1C7D
:1032B000CB55391C28322031BC6202F0E7FD234B8C
:1032C000234A1D6816682B687A69013B5A43944665
:1032D000013BCDD3686800217860604480007A6843
:1032E000013A7A6004D3F26D125804388918F6E76F
:1032F000B869814201DA3969CC5478696246121A98
:10330000E5E7124A0020012328211268B862B88537
:10331000CB5512782924E2552A212B24CA55E25D87
:103320007F218A431343E1190B702C22AC23391CF3
:10333000D35528313A6902F0A9FD0348B96801F074
:1033400085F8BD460DB0F0BD79310000680500205C
:103350003C000020014B18687047C0468C030020D9
:10336000014B58687047C0468C030020014B986899
:103370007047C0468C03002070470000014B186066
:103380007047C04614120020014B18687047C046B1
:1033900014120020014B18607047C0461012002024
:1033A000014B18687047C04610120020014B18608E
:1033B0007047C0460C120020014B18687047C04689
:1033C0000C120020014B18687047C046980300207B
:1033D00010B50D4B00201B78AA2B12D10B4B1C787B
:1033E0000B4B64B218780B4B40B219780A4B20187B
:1033F0001A780A4B49B21B7840188018C01A434209
:103400005841C0B210BDC046500002005100020039
:103410005200020053000200540002005500020056
:103420008023DB020022188059809A80C046024B1C
:10343000188880B27047C0460600040082B000229F
:10344000019201AB55221A70392252429A70012220
:10345000DA70019AA023DB059A6102B07047A023BD
:10346000DB059869C001C00F70470122A023DB056E
:10347000104002060249986908401043986170475D
:10348000FFFFFFFE82B00022019201220A4089184C
:1034900001303F2201AB1040C9B21870481C023104
:1034A00002408900D9705A70019AA023DB05DA61C5
:1034B000196A024A0A401A6202B07047FFCFFFFF42
:1034C0000002064B000A0138002258609A6005226B
:1034D0001A60C0461A68D103FCD5704710E000E0BE
:1034E000F0B55C4B85B01F6803AD3E1CF13604247B
:1034F000311C221C281C05F067FDB37832781907AF
:10350000E3400193F37828781B071B0F0093120701
:103510000F239843120F1043287068780126304318
:103520000226B043A043C72420406870A878019EBB
:103530009843090F0843340118402043A870E878E5
:10354000009E9843031C334310208343EB70039881
:10355000A023DB05FA25D8606D00A023DB05DC681D
:103560003D48013D2040D860DC688020C0002043F9
:10357000D860002DF1D1F2373C78DE68E406374898
:10358000A40FE40230402043D860DC688020800033
:103590002043D860DC68802080012043D8600C1C68
:1035A000161CFFF715FF002812D02D4F8820397800
:1035B0001E34C9B205F088FC39784443C9B288206A
:1035C00005F082FC0F3646431E3C0F3E002C03DB09
:1035D000251E0F2D00DD0F250F239E4200DD1E1C32
:1035E000A024E4051D402B041E4AE5681E48154032
:1035F0001D43E560F343E268DB171E400F239A4347
:103600001E401643E660E368F02293438022134392
:10361000E360E368154D164E2B40E360E3683340EA
:10362000E360FFF74DFFE26880235B051343E3602F
:10363000009A10481306E26816401E43E660FFF742
:103640003FFF019EE268330515401D43E56005B06C
:10365000F0BDC04610120020FFFBFFFFFFE7FFFF99
:1036600054000200FFFFF0FFFF0F0000FFFF0FFFFD
:10367000FFFFFFF0FF6F0000064A074B12680120B2
:10368000D832126819789040021C0A43D2B21A70DC
:103690007047C04698030020290000500549064B9A
:1036A00009681A78D83109680120884082431A7065
:1036B0007047C0469803002029000050044B18783A
:1036C000044B1B68D8331B6818410123184070470E
:1036D0002900005098030020A0230122DB055A7026
:1036E0007047044B82B0019001AA188092789A70BA
:1036F00002B070472400005007B500F0BFFE064B33
:10370000019001AA188092789A70044B00221A70D6
:10371000034B0122DA7707BD24000050000000208F
:103720000800005007B500F0C7FE064B019001AA43
:10373000188092789A70044B00221A70034B012271
:10374000DA7707BD24000050000000200800005078
:10375000034B00221A70034B0122DA777047C046F0
:10376000000000200800005072B6084B1B5C002BC4
:1037700003D1C04662B630BFF6E762B6A023DB05D0
:103780009968034A0A409A607047C04600000020CA
:10379000FFFFF9FFA023DB055A680121120E5868CC
:1037A0009143034A090602400A435A607047C046E3
:1037B000FFFFFFFE08B5074B1B681A1CE5321278A5
:1037C000E6331B78520001325043994005F07CFBF0
:1037D00008BDC0461012002008B5044B1B68E83332
:1037E000197849000131FFF7E5FF08BD10120020EC
:1037F00008B5A0230120DB055870FFF7B5FFFFF7E0
:10380000C9FF08BDF0B585B0041C494D03AE0428BE
:103810000BD12968221C0191301CCE3105F0D4FB5C
:1038200001994448D231221C0BE02B680422191C58
:10383000D631301C019305F0C7FB01993D48DA31C0
:10384000042205F0C1FBA023DB055869317800068E
:10385000800F1F2202304001114001433170039953
:1038600019611E691640FFF7B3FD00280AD0324BDC
:10387000882019780436C9B205F026FB4643002398
:10388000043E03D4331E1F2B00DD1F23A022D205CC
:10389000108A1F210B40884303431382022C16D049
:1038A00007DC002C13D0012C18D12B681F1CE73724
:1038B00014E0042C07D00EDB052C0FD12B6800245C
:1038C0001F1CE1370AE02B681F1CDE3706E02B685F
:1038D0001F1CE43702E02B681F1CEA37A023DB051E
:1038E000596938783F2210409143014359617878F3
:1038F0001F215D6908401149C002294001435961F7
:103900000F49640009680C19211C7731087859683F
:1039100010409143014359607834217858680A4037
:103920001102084A02400A435A6005B0F0BDC04681
:10393000101200201400005054000200FF07FFFF87
:1039400098030020FFC0FFFF294BF0B51A68294BF0
:1039500085B01B68E7331B785B069B0E0193931DB4
:10396000D97F00238D005519581E5B18002B27D0D6
:1039700053181B1826331B788024D3185E78A02395
:10398000DB055F68E4033C435C60019CB6062404ED
:1039900000945F68B60EBC46174F64462740009CF3
:1039A00027435F60C046243676008400F65A2C19FF
:1039B000883426605E68114C34405C60031CD3E799
:1039C0006F460293BB8101233B72931DDB7F7F21F6
:1039D0007B72BB72FB7A88328B4304210B43FB72F0
:1039E0000F20B02302A93B7302F050FA05B0F0BDDE
:1039F0009803002010120020FFFFC0FFFFFFBFFF51
:103A0000F0B585B0FFF7A0FF154B00251E68B31D6C
:103A1000DC7F631C9B005B420093A300F3180193BF
:103A2000009B043D9D4208D0019A01215719883717
:103A30003868FFF7BFFE3860F2E76A4600239381DB
:103A4000012313720423D372B0235472947213733C
:103A5000321C88320F2002A902F018FA05B0F0BD1E
:103A600098030020044B00225A70A023DB055A70F3
:103A700001221A707047C04600000020A023DB0519
:103A80009968064A0A40802189020A439A60044ADA
:103A90000021917001229A707047C046FFFFF9FF24
:103AA00000000020024B1B680833D86F7047C046E7
:103AB00098030020024B1B680833D8677047C04644
:103AC00098030020A023DB059868C0B2704730B58A
:103AD000A023DB059B68DBB283420ED001DA013301
:103AE00000E0013BA022D2059568FF211C1C8D43FC
:103AF0000C40291C21439160EEE730BDA023DB057B
:103B00009968802252020A439A609968094A0A40D9
:103B10009A609A68120112099A60D968064A0A40A6
:103B2000DA60D968054A0A40DA60D968044A0A406E
:103B3000DA607047FFFFFFF0FFFEFFFFFFDFFFFFD0
:103B4000FFFFFFEF1B4B10B51A680121131CEF3369
:103B50001878A023DB059C68084017490004214021
:103B600001439960F03210789C68144900070009FD
:103B700021400143996011789A68090912010907E7
:103B800012090A439A60D968802252000A43DA6017
:103B9000D968802292010A43DA60D96880225205EE
:103BA0000A43DA60C923013B002B01D0C046FAE783
:103BB00010BDC04610120020FFFFFEFFFFFFFFF008
:103BC00010B5A024E405A36800201B011B09A36015
:103BD000E268124B1340E360E268114B1340E3606C
:103BE000FFF7C2FD0F4B1B68F0331A78A368120968
:103BF0001B0112071B091343A360E26880235B00CB
:103C00001343E360E26880239B011343E360C9230D
:103C1000013B002B01D0C046FAE710BDFFFEFFFFBD
:103C2000FFDFFFFF10120020034B1B68E5331878FD
:103C3000400001307047C04610120020024B1B6844
:103C4000E63318787047C0461012002000487047CD
:103C50000010005000487047002000500048704796
:103C600000400050074B01201B685B799A1C034001
:103C7000D318054A1268663210785843034B800007
:103C8000C018704714120020980300200440005010
:103C9000F7B51B4B051C1C68A3795F1E15D3627911
:103CA000013A10D36079561C811C01910121084012
:103CB00001990818584331181248890009180868F2
:103CC000E8400860ECE73B1CE7E7FFF7CBFFA37A8F
:103CD000002201339C466346013B9C460FD3617A28
:103CE00096000191861900230199994205D09F0001
:103CF000F1590133E940F151F6E75218EBE7F7BD0E
:103D00001412002000400050074B01201B685B7913
:103D10009A1C0340D318054A12687232107858432F
:103D2000034B8000C0187047141200209803002035
:103D300004400050F7B5284B1D682A7853B2042B75
:103D40001ED1264B1B68E0331F78254B19680223D0
:103D50005E1E3FD34A79013A10D34C79551CA01C02
:103D6000019001200440019804195C4328191D4C5E
:103D7000800000190468FC400460ECE7331CE7E7AE
:103D8000002A27D0022B03D1144B1B68E6331EE018
:103D9000032B03D1114B1B68EC3318E0012B11D11D
:103DA000FFF7B2FF0E4B061C1B685C79013C11D378
:103DB0002B193A331B789B009859FFF70DFDA30090
:103DC000F050F3E7052B05D1044B1B68E33318785B
:103DD000FFF75EFFF7BDC0469803002010120020D9
:103DE000141200200040005008B5A0230120DB057C
:103DF0005870FFF7B9FCFFF7CDFCFFF79BFF08BD3C
:103E000070B5041C104E114D11D10120FFF7FAFCC2
:103E1000336801221A70A023DB056C705C701A7085
:103E2000FFF7E2FFFFF7B6FCFFF7EAFD0224201CD4
:103E3000FFF7E8FC336800221C70A023DB056A70E2
:103E40005A7001221A7070BD9803002000000020F3
:103E500008B5FFF7D5FFFFF7C7FF08BD08B5A023DA
:103E6000DB05011C58683F2211409043084358600D
:103E700059685868114001310A401102064A02404F
:103E80000A4306495A6000224A705A7001221A7089
:103E9000FFF7AAFF08BDC046FFC0FFFF00000020DB
:103EA000094B01211A685379D0799A1C0B40D31819
:103EB000064A013012686A3212785343C018044B24
:103EC0008000C0187047C0461412002098030020DC
:103ED0000040005010B5A023DB051C6A0005064A0F
:103EE000000D010422400A431A621A6A120B1203DF
:103EF0001043186210BDC046FFFF00F0164B13B50B
:103F00001C68A023ED34211CDB05144804229B68A7
:103F100005F05AF82478FFF75BFA00280CD0104B14
:103F2000104A1B781278201C52B200925BB210210A
:103F3000D12202F065F82418002C01DA002402E0F6
:103F4000FF2C00DDFF24084BE0B21B680833DC6760
:103F5000FFF7BDFD13BDC046101200200800005041
:103F600053000200520002009803002008B5FFF73A
:103F7000C5FFFFF7B5FAFFF761FA234BC0229200A5
:103F800098582249014099509958FF208143402078
:103F90000143995098581E49014080200004014374
:103FA0009950985880210002000A0906014399504F
:103FB000012102221A60082019600421196018608A
:103FC000144B00205860144B186901431961134BBE
:103FD0001B68197A124B1B68D833002900D10322C1
:103FE00010491A6000230B700F49A0220B700F4973
:103FF000D2050B709363D36B9B0E9B06D36362B6A3
:1040000000F082FA08BDC04600E100E0FF00FFFFBB
:10401000FFFF00FFFCE100E000ED00E014120020D3
:104020009803002029000050280000502A0000506A
:1040300008B5002801D0012801D100F065FAFFF78A
:104040005DFFFFF74DFAFFF7F9F908BDF0B5214B19
:1040500013211B680224DA7A0023133AD2B2914268
:104060005B41E41AA023DB0558693F2259681040E0
:104070008022D2030A43A3B05A60411EA023C9B2D2
:10408000DB0502AAFF2910D05F683F26124D0E40C3
:1040900036043D4035435D60C046251C24356D0027
:1040A0005D5B4B00D5520139E8E75C680B49214064
:1040B0005960694600238B8001230B7002234870EE
:1040C0008870CB700320B3230B7101F0DFFE23B0A7
:1040D000F0BDC04614120020FFFFC0FFFFFFBFFF6E
:1040E00010B5A020C00544694906E401E409214354
:1040F00041617F210A4044699104074A22400A43F2
:104100000649426100224A70427001220270002B6F
:1041100001D0FFF769FE10BDFFFF03FE0000002085
:10412000F7B5041C02F0DEFD124B1A68002350683C
:10413000411C0191019D16689D420CDB9768013678
:104140007E4399008C469E1900216546B600615158
:1041500001333151EEE701239E420ADB95680021CD
:104160005D43AF002D180135AD00395101332951A0
:10417000F2E7F7BD68050020044B054900221A60EC
:1041800059609A6005221A607047C04610E000E04E
:10419000FFFFFF0010B5A023DB059C689968E623AC
:1041A000C943C9B25943E403E40F064B0134A040AC
:1041B000C918041C044804F087FE011C201C04F0EC
:1041C00083FE10BD5C5D000040420F00014B0022E9
:1041D0001A60704710E000E030B50D4D0D48AB6837
:1041E00085B0C01A0193FFF7D5FF02A9012300246F
:1041F0000B704B708B7004230190CB70201C6F23CD
:1042000001AA8C800B7101F041FE2C6005B030BD1D
:1042100010E000E0FFFFFF00A023DB05D87CC0B268
:1042200070478023DB0500BA09BAD860196170476E
:1042300037B5051C0424291C221C684604F0C4FE62
:104240002919221C01A804F0BFFE009980230ABA94
:10425000DB05DA6001990ABA1A6137BD40BA80B24B
:10426000704700BA70470023114A12499A188A42CF
:1042700004D21149C95804331160F5E70F4B104AB5
:10428000191D043B934203D200221A600B1CF6E76F
:104290000C4B0D4A1360EFF308820433191D043BE5
:1042A0009A4203D9094818600B1CF7E77047C046CB
:1042B0003C0000207C050020A0910000800500202B
:1042C000041200204C1200202C120020CDCDCDCDA8
:1042D000F0B5294D89B029482C6800F0EDF8FFF7BA
:1042E000EFF80026264FBC4222D280373B1B202706
:1042F000832B00DC9F1002A9FAB2012300204A7030
:104300008A70BF10221C0B70CB70888001F0BEFD3C
:10431000231C3A1C013A08D3002E04D1194918680D
:10432000884200D01E1C0433F4E7BF00E419D9E72B
:104330002B6804A9F31A0025019304230124CB70F0
:10434000281CA72301AA8D800C704C708C700B71F7
:10435000843701F09BFD06A90420C870A823BE1B6A
:10436000281C01AA8D8001960C704C708C700B710A
:1043700001F08CFD09B0F0BD2C120020801A06005F
:1043800080370020CDCDCDCD024B1B680633D87FC2
:104390007047C0469803002070B5051CFFF7B4FCB9
:1043A0000A4B1C68A31DDB7F9A00AD180022511E2A
:1043B000D218002A09D0E218521826321278920038
:1043C00016588A00AE500A1CF1E770BD9803002011
:1043D00030B50B4B1B689A1DD27F94001C195300FB
:1043E000C01800230133D11A013107D09D00651B8D
:1043F000883559002D6849424552F3E730BDC04623
:1044000098030020A02382B080B2DB05D88502B0DB
:104410007047A023DB05D88D82B002B0704770B51D
:10442000051CFEF7A3FF0468061C013C08D3726854
:10443000E300D3181A68AA42F7D15B689847F4E7FB
:10444000014B013D1D6070BD1812002070B5051CA8
:10445000FEF78CFF8468061C013C08D3F268E30079
:10446000D3181A68AA42F7D15B689847F4E7024B61
:10447000013D1D6070BDC0461812002038B5A02354
:10448000DB0599689D68C943E623C9B25943084BC7
:10449000041CC918074804F017FD064BED035843E8
:1044A000ED0F01352841211C04F00EFD38BDC0463A
:1044B0005C5D000040420F0038B5A023DB05996821
:1044C0009C68C943E623C9B25943064B051CC91869
:1044D000054804F0F9FC6843E403E40F013420418B
:1044E00038BDC0465C5D000040420F00002801D08E
:1044F000133907E0122902DD262902DD123949109D
:1045000000E000E0081C7047F0B5E24BB1B01B685A
:104510000293DC79002C00D187E153331B78002112
:10452000133BDBB21322081C9A424841C4B20594E3
:10453000022609AC361A1422201C04F087FD029DC5
:104540006F7A02982B1ABB4210DA2B1C533319785E
:104550000598FFF7CBFF132800D9CFE3235C013583
:10456000B34200DBCAE301332354EAE7CA4B002518
:104570001B68291C049363331D70049B88226633D7
:104580001D700EA804F062FD291C1422201C04F0EA
:104590005DFDC24B0EA8196844228A3104F014FD57
:1045A000022E04D11FA80EA9442204F00DFD0025FF
:1045B000029C0395029D6B7A671B01349F4234DA9B
:1045C000231C52331D780598291CFFF78FFF09AA79
:1045D000115C6E118C460696112166467143069E4B
:1045E0000EAB89191F263540063101268900AE40E1
:1045F000351CCE583543CD50049D3F23E919061C88
:104600001E40583106968F796646B501069E9F4337
:104610003E431E4063460133039F2E43DBB28E713F
:1046200013549F42C6DA0393C4E7049B039E0027FA
:10463000F6B2653306961E70049702970597954B60
:10464000059E1A68937A9E4200DBA1E0059C13192F
:10465000583319780123081C20381D1C83408D40D5
:104660009801039CAC468009002C18D0013C4423DF
:1046700063430EAD00265E55EB181D1C1F2905DC9B
:104680005F6A66461E62BB0E9B0606E01E626F6A8C
:104690008301BE0E9B09B60633436B62E4E77E4B93
:1046A000527A1968231C934210DAC8185830857959
:1046B0004426A806AD097543049F800E28180137CB
:1046C0000EADFF18281807710133ECE7734B049EF9
:1046D0001B68B6181A1C8C328B3317781D78FF06AE
:1046E000AD060496FF0EAD0EFEF772FE002813D045
:1046F0006B4E882031780137C9B204F0E5FB317880
:104700004743C9B2882004F0DFFB02354543013F2F
:10471000023D0026781C03D03E1E1F2E00DD1F2602
:104720003F2D01DD3F2502E0EB43DB171D400299E1
:1047300044274F435B4ABF1803998C421EDA442238
:10474000111C61430EAB5918301C1F2318400790F1
:10475000887801349843031C079803438B70281C06
:104760003F231840079048789843031C0798034359
:104770004B70381C04F028FC4437DDE7CB43029C27
:10478000059DDB170B40E41801350294059556E7AB
:10479000414B029F1C68FBB2211C64310B70CB7033
:1047A000069D00238B7105310D70517A0EAA8B4244
:1047B0000FDAE018583085794426A806AD0975430C
:1047C000049F800E28180137FF1812181771013343
:1047D000ECE7029F44237B439A1A1AAE0492002509
:1047E000039FBD4218DA44276F430EA8C719786AA1
:1047F0000021820E920639627A62301C142204F083
:1048000025FC0499284A013588188019391C44224E
:1048100004F0DAFB4436E3E7FB43DB17029D3B4041
:10482000EB186834039323700DE01B4D211C28689E
:104830000422633004F00AFC2868211C673004223B
:1048400004F004FC0394134B00211C681322E37A48
:104850000E1C133BDBB29A424E41F7B2059709A8F2
:1048600002271422BF1B04F0F1FB6679251C2B1BC9
:10487000B3421BDAE97A0598FFF738FE132800D90E
:104880003CE209AB1A5C0135BA4200DB36E2013288
:104890001A54ECE714120020980300201012002094
:1048A0005400020000800050D07F0050A34D0398B8
:1048B0002E680122331C6B331870DA7000218822B5
:1048C0000EA804F0C3FB0021142209A804F0BEFBCB
:1048D0009B4B0EA819684422463104F075FB022F49
:1048E00004D11FA80EA9442204F06EFB0027251C4A
:1048F00004972F1B0697637901359F423CDAAF7A04
:104900000598391CFFF7F2FD09A9095C0EAB02916D
:10491000029A44215143091859182A1B0A71791126
:1049200009AA0791115C11225143079A89188A1D1F
:104930001F210F4001219200B9400F1CD1580F4395
:10494000D750069F3F23F219011C029F1940069180
:10495000BF0151780797069F99430F4307991F405E
:10496000029B0F4357700133049FDBB209AA135413
:104970009F42BEDA0493BCE7049C6D36E4B2012585
:104980000694347002956F4A029B1668013BB27917
:10499000934200DB82E0F6182836F2790121101CE0
:1049A00020380E1C814096408901049DB446890937
:1049B000002D18D0013D44246C43029F0EA82754BB
:1049C0000419201C0026266220304768BE0EB60659
:1049D00046601F2A02DC60462062E9E78C01A409D8
:1049E00026434660E4E7564A1268D31847321478E3
:1049F000FF33A4069E7FA40EFEF7EAFC002812D027
:104A0000514F882039780136C9B204F05DFA3978FF
:104A10004643C9B2882004F057FA02344443013EA9
:104A2000023C711C03D0351E1F2D00DD1F253F2CBD
:104A300001DD3F2402E0E343DB171C40039E039F9C
:104A4000079644267E4341483618039F0798391A33
:104A5000049FB9421EDA442251430EAB59188F7895
:104A60001F239F43281C18403B1C03434F788B7027
:104A70003F239F43201C18403B1C039F03434B7064
:104A80003B2F00DD3AE1301C013704F09DFA44363B
:104A90000397DAE7029C0134029474E7274B039DE5
:104AA0001C68029F221CEBB26C321370D370231C63
:104AB000069DFFB272331F70013B1D7009A80021D3
:104AC00014220297002504F0C1FAA31DDD77737943
:104AD0009D423DDA7319DF7A0598391CFFF706FD10
:104AE00009AB1B5C0493002B0BD1A31DD97F4A1C7F
:104AF0006118DA770731EBB20EAACB7701331118C0
:104B00000B710EAB1A1812796119944601225242A8
:104B1000944462463A310A7079111F2217400631D7
:104B2000012294468900BA40171CCA5865441743AD
:104B3000049ACF50624409AB1A54C8E79803002086
:104B400010120020141200205400020000800050B7
:104B5000D74B1B6847331C78A406A40EFEF738FC1D
:104B600000280AD0D34B882019780234C9B204F047
:104B7000ABF944430023023C03D4231E3F2B00DD4A
:104B80003F230EACA2781F218A436178A2703F2296
:104B90009143666A1340029D0B436370B30E257008
:104BA0009B06002563621AA8291C1422256204F0C2
:104BB0004DFA039F3B2F00DDA0E044207843BE491F
:104BC000442240180137211C04F0FEF90397BB4F23
:104BD00003983E68C7B2331C70331F700D3B1B78BF
:104BE000321C7732311C137057706F3109780B3AD1
:104BF0005173311C7B3197730B701278331C7C33EB
:104C0000301C1A707D30022204F0DEF9AC4B132206
:104C10001B68291C0293DB7A201C133BDBB29A42EF
:104C20006941CAB206920222521A331C73330492AB
:104C30000122DA701F70291C882204F007FA291C4F
:104C4000142209A804F002FA994B201C1968442286
:104C5000023104F0B9F9049D022D04D11FA8211CD2
:104C6000442204F0B1F9029C00270497029F029DA0
:104C7000E71B05976B7901349F4238DAA57A0698CD
:104C8000291CFFF733FC09A90F5C44217943029AE0
:104C90000EAB09185918A21A0A71691109AA0791CD
:104CA000115C11225143079A89188A1D1F210D405A
:104CB00001219200A9400D1CD1580D43D550059DEE
:104CC0003F2372195178051C99438C46B9011D4048
:104CD000059161460D431D40059B01371D435570ED
:104CE000FFB209AD2F54049DBD42BFDABDE7331CAE
:104CF000049E753300271E70029701E00020D4E067
:104D0000049A002A14D0013A442151430EA84118B4
:104D1000CE6A00204D6A08628862B00E8006CB78A9
:104D2000AC0EC8622020A40603434C62CB70E8E7B7
:104D3000634B029A1F68B879BC460590029C059D9A
:104D4000131BAB4247DA029C61460B1B9B182F33A7
:104D5000187851100123061C1940203E1F1CE5B293
:104D60000791B3400499069587401E1C002930D056
:104D7000013944234B43029C0EAD01345C55069C23
:104D8000EB18079D64B20194AC420FD01F2803DCDE
:104D90001C6A3C431C62E9E75C6A251C3543AD0193
:104DA000A40EAD09A4062C435C62DFE71F2803DCD8
:104DB0009C6A3C439C62D9E71C1CDB6A33439B0121
:104DC0009B090193E36A9D0E019BAD062B43E362B1
:104DD000CCE70132B2E7364B1B685A19DD78FF3257
:104DE000AD06977FAD0EFEF7F3FA002813D0314CD5
:104DF000882021780137C9B204F066F8217847434A
:104E0000C9B2882004F060F802354543013F023DF5
:104E100000247E1C03D03C1E1F2C00DD1F243F26D7
:104E20003F2D02DCEE43F6172E40039F44257D43C1
:104E3000214805972D18039F0598391A049FB942F8
:104E40001FDA442251430EAB59188F781F239F431A
:104E5000201C18403B1C03434F788B703F239F431B
:104E6000301C18403B1C039F03434B703C2F00D168
:104E700044E7281C04F0A8F8039F44350137039742
:104E8000D9E7029C01340294022C00D038E70B4B86
:104E9000039D1B68EAB2191C7431181C0A70733028
:104EA00000788033C8721A70012031B0F0BDC0465E
:104EB00010120020540002000080005098030020CF
:104EC00014120020F8B5164D061C2B68002463331D
:104ED0001F782B68E1191A1C643212780134914250
:104EE00009DAE319442058430E4B311CC018142230
:104EF00004F0ACF8EDE76B331F7800242B68E2195F
:104F00006C331B7801349A4209DAE3194420584380
:104F1000044B311CC018142204F098F8EEE7F8BDD9
:104F200098030020EC7F0050F0B5374B85B01B682C
:104F300002901A1C039163321578344A00201168DC
:104F4000041C8A7A94422BDA021C4F7A161ABE424B
:104F50001FDA9E195836B679B7090096EF1944261C
:104F60007E432B4FB4463E1C009F66440196BE060E
:104F7000039FB60EB446BE5C3F2E00DD3F26F6B260
:104F80000096019E0132371C6744009E30373E7008
:104F9000DBE7181C6530007801342D18101CD0E7B1
:104FA0001A1C6B32147800208A79904229DA002288
:104FB0004D790195AA421EDA9E187678B709E7194D
:104FC000039744273D1C039FB6067D43AC46104D16
:104FD000B60E2F1C019D674445430397029FBF18DF
:104FE0007D5D3F2D00DD3F25039FEDB2BE193036BC
:104FF00035700132DCE71A1C6D3212780130A418CA
:10500000D2E705B0F0BDC04698030020141200207E
:1050100000800050F0B5A24B95B01C686846A3799B
:10502000627900AF5A43131C0E33DB08DB00C01A51
:1050300093000E33DB08DB008546C01A6D468546BB
:10504000FD616D463D61E3792726191C0E319B00F9
:10505000C9080E33C900DB08401ADB008546C01AB8
:105060006D468546BD6100216D46F869FD6003F01F
:10507000EDFFA379627900215A433869920003F069
:10508000E5FFE2790021B86903F0E0FFE279F86812
:105090009200002103F0DAFF0023F3552722D05DB0
:1050A0007F4E3E2800D9C8E0FFF70CFF0020FEF736
:1050B000CFFE2721C95D30687961002283799A4249
:1050C00035DA00234179541C8B422EDA161C4E43EC
:1050D0009E198D1CBE600126AC463140614461437F
:1050E0008919C9188D006F493E696D182D687D605A
:1050F000BD68AD00A9597D68A94214D27D69FE69D9
:10510000B9687554417901258E1C0D4075196C43A1
:1051100051430134E418634EA400A41924685918BB
:105120003D6989004C510133CCE7221CC6E7FEF7EC
:1051300099FD5B4B27261B68F65D002278613B607A
:10514000BE607A603D687E68AB7A9E421CDAFE687B
:10515000940035197E69111C3419002338685A18D7
:10516000407A83420CDA9A00A858A658B04205D279
:10517000BE69B8687618F054A658AE500133EDE712
:10518000796801317960DDE7012529212A2200248F
:10519000CD55D55528202B23391C3A1CC555DD5536
:1051A0002C261D23201C28312732BC85F35500F006
:1051B0006DFE3B4E3C633368BC869A793020C25505
:1051C0005B7931211A1CCB552A400233D318332086
:1051D0003222D355C25D7F218A430420024333210A
:1051E000CA5531499B0051223420C2555A18391CE6
:1051F000201C303100F04AFE33683822BC63BC8783
:10520000D555DB793B2039253A26F355EB55C35D5F
:105210007F218B4304221343C519391C2B70201C9A
:105220005A2338313C267A69F35500F02FFE2720A7
:10523000C35DC11901330B7030E7391C40310024C4
:1052400033683C648C809A797F250A705B79FA69AF
:105250004B708B70CB780820AB4301252B43CB7070
:105260001D230B7100F012FE391C48313368BC64F9
:105270008C800D70DB797F264B708B70CB78BA6990
:10528000B3431D4308201E230B71CD7000F0FEFDBB
:10529000F869B969FFF748FEBD4615B0F0BDC046D4
:1052A000141200200040005004400050F0B56C4B38
:1052B00097B01B6869469A795C7900AF5443231C08
:1052C0000E33DB08A200DB00C91A131C0E33DB0807
:1052D000DB008D46C91A6D46F9618D46081C002118
:1052E0003D6203F0B3FE386A0021221C03F0AEFEDB
:1052F00005233B633A6B132A00DDADE04F23012405
:105300007B6380263A23DC55382176420423CC5532
:10531000334339223B210025D455CB553C22A423CD
:10532000BD87391CD3553A1C281C3831303200F067
:10533000ADFD4423DD53402141224223CC55D455B9
:10534000DC550424A523432144222643D355CE55BE
:105350003A1C391C281C4031343200F097FD2F23B1
:10536000DD552F21C85D3F2873D8FFF7ABFD3C6B9F
:105370007D6B61B26AB201230020FEF7B1FE384BAB
:105380002F221B68D25D3B6199797A61B961002255
:10539000BD69AA422BDA396948790121031C5343BC
:1053A000861C01407B627118531C59437D6A8B0037
:1053B0006C1AFD69A4002C19FC600021814214DAEA
:1053C000284C1E19FC683568E458AC420AD23D6A84
:1053D0003668AC467D6ABE60AC447D6964466554FF
:1053E000FC68E65001310433E8E70132D0E70024DD
:1053F000391C3A1C483101251D23201C2F328C807A
:105400000D704D708D70CD700B7100F03FFD144B21
:10541000391C50311B683C658C809A79201C0A70BD
:105420005B797F224B701D400233ED18CB788D7075
:10543000934304221343CB7051230B71094BAD00EE
:10544000EA182F2400F022FDE35DE51901332B70EB
:1054500087E73B6B01334CE7BD4617B0F0BDC04654
:10546000141200200440005044235843044B111CE4
:10547000C018C2780F2319409A430A43C27070477C
:105480000080005038B5051C141CFDF7A1FF002852
:1054900008D00A4B882019780234C9B203F014FDF1
:1054A0004443023C44206843054A3F238018027865
:1054B0001C409A431443047038BDC0465400020097
:1054C0000180005010B5041CFDF782FF002808D0B1
:1054D000084B882019780434C9B203F0F5FC444322
:1054E000043CA023DB05198A1F22144091430C437E
:1054F0001C8210BD54000200F0B5C54D99B02B6858
:10550000A0245A799B7900AFD3181A1C5A43E4059A
:10551000A668BB62D31DDB08DB006846C01A85465F
:105520006B46FF21BB6103F091FDFF20FEF7C4FF36
:10553000B8496A46081AF860B86AF6B2C000031C97
:105540000E33DB08DB00D21A9546BA6A7861920006
:10555000131C0A33DB086846DB007862C01A8546F4
:105560006B463A613B6200220023BA63FB63AA4B9D
:10557000E2681340E3602B685C79A54B013C1B6833
:10558000611C14D01B19381CD97A5830202203F022
:10559000FDFCB86D60218300C919CB18FA6D283B5A
:1055A0000121186891400A1C02431A60E5E79C79C2
:1055B000013C621C17D0964B381C1B6858301B19D5
:1055C0002833D979202203F0E1FCBA6D60209300E2
:1055D000C019FA6DC3180121283B91400A1C1968B3
:1055E0000A431A60E4E7FF239E1BE6235E438B4CCD
:1055F0003419BC60BC69FC6100247C637C6BB86AB4
:10560000844200DBF3E000217A69786A03F01EFD32
:1056100000213A69386A03F019FDA023DB05002256
:105620001A635A6B6420920E92065A63BD6B9D6397
:10563000FC6BFC62DA6BA601920EB609920632434D
:10564000DA63FEF739FFFDF73BFF714B7C6B1B689C
:105650009A79944203DA1B192833D97903E07C6BD9
:10566000A21A9B18D97A381C5030202203F08EFCE5
:10567000BA6BFB6B3A647B647B6D396D01229A4097
:105680006023DB1988001818031C203B1C68944316
:105690001C60A023221CDB0500290AD028380168E1
:1056A0004A4091015A6B8909920E92060A435A6345
:1056B00001E06A401A63A024E405A563E36B0A20B5
:1056C0009B0E9B061E43E663FEF7F6FEFDF7F8FE13
:1056D000E26B8023DB041343E363386CFA6A4540D2
:1056E000A563796CE36B4A4092019B0E92099B067D
:1056F0001343E363FEF740FD7A6C3D6C7B6A94468E
:105700000126474AFC689168A14214DB454A644679
:1057100010685268284022405C68944203D3F0D15C
:105720001C688442EDD23C6ADA60B2009860A150F5
:1057300001360833E5E7FEF749FDA023DB05D96B09
:10574000394A0A40DA63012E49D0751E7C6AED00A1
:105750006519013E002E42D02B1C083B1A682868B0
:105760005B686968BC6A90439943B200B864F964A5
:10577000013CFA627A6B94422FD0254B1B689A79D0
:10578000944203DA1B192833D97902E0A21A9B1834
:10579000D97A381C5830202203F0F8FBFB6D012227
:1057A000B86D9A406021131CC91982008A18183AF2
:1057B00012681A420FD0FB6A3A6AB968D258154B80
:1057C0001A489B1A3B6303F07FFB011C386B03F004
:1057D0002DFBF9690855013CCCE7083DB9E77C6B26
:1057E000B86A01347C63FC692418FC6106E7C3B223
:1057F000381C58300370437083700023C3700371EA
:10580000B9690123437100F0E7F8BD4619B0F0BD56
:1058100014120020FFFFFF00FFFF0FFF5C5D000080
:1058200010E000E040000050FFFFFFFB40420F008F
:10583000014B18607047C04620120020014B1868C9
:105840007047C04620120020014B18607047C046C8
:105850001C120020014B18687047C0461C12002023
:10586000014B18687047C0469C030020F7B5334FC2
:1058700073467146381C0193FEF7D1FDFBF7B6F96C
:10588000009001F02FFA061CFDF77EFD2C4D102232
:10589000041C0099286803F097FB32882B68381C99
:1058A0001A74120A5A74B2889A74120ADA74254A5F
:1058B00012680532D27F002A03D0A2791A75627964
:1058C00002E062791A75A2795A75E2799A751E4AD0
:1058D0006B6812881A70120A5A701C4A52889A70A1
:1058E000120ADA701A4A52881A71120A5A71194A3F
:1058F000D2889A71120ADA71174AAB68920A1A7042
:10590000164A920A5A70164A920A9A70154A920AD0
:10591000DA70154A920A1A71144A920A5A71144A94
:10592000920A9A71134A0199920ADA71A023DB054F
:10593000DA7C6B691A70FEF789FDF7BD0D5800001F
:10594000A003002068050020FE030000FC97000073
:10595000FCAB0000F8BF00000000000000040000E5
:1059600000040000009800000098000000AC000057
:1059700000AC000000C00000F7B50A4C7146061CE0
:10598000201C7546FEF74BFD074A694681CA81C156
:105990006B46B600F658201C291CFEF757FD301C3C
:1059A000FEBDC046195900008890000070B5084C33
:1059B0007146201C7646FEF732FD064B201CDB6943
:1059C000311C5D78EDB2FEF741FD281C70BDC0466C
:1059D0004D590000A0030020F8B5144D041C0F1C05
:1059E000281C71467646FEF71AFD114BFF215A6AB4
:1059F000117010499C620F60A0782778596B47435B
:105A000020793F1860794006400E78430860986915
:105A1000A0210170D969281C1378FF2B02D10B78C3
:105A2000022BF9D0311CFEF711FDF8BD79590000A9
:105A3000A00300209406002038B50D4C7146201CB0
:105A40007546FEF7ECFC0B4AD1694B780A49DBB28C
:105A50000B72012B05D0022B05D1936901225A70DC
:105A600001E0FDF709FE291C201CFEF7EFFC38BD04
:105A7000D9590000A00300209406002038B50D4C31
:105A80007146201C7546FEF7CAFC0B4BDB68002BE9
:105A90000BD00A4ADBB2106C7F21194048320170EA
:105AA000937001335370FFF7C7FF291C201CFEF7CA
:105AB000CDFC38BD1D5A000094060020A003002034
:105AC00038B50C4C7146201C7546FEF7A8FC0A4BF5
:105AD0001B7A012B06D0022B06D1084B00229B69B2
